{
    "_format": "hh-sol-artifact-1",
    "contractName": "Blog",
    "sourceName": "contracts/Blog.sol",
    "abi": [
        {
            "inputs": [
                {
                    "internalType": "uint256",
                    "name": "_level1",
                    "type": "uint256"
                },
                {
                    "internalType": "uint256",
                    "name": "_level2",
                    "type": "uint256"
                },
                {
                    "internalType": "uint256",
                    "name": "_level3",
                    "type": "uint256"
                }
            ],
            "stateMutability": "nonpayable",
            "type": "constructor"
        },
        {
            "anonymous": false,
            "inputs": [
                {
                    "indexed": false,
                    "internalType": "address",
                    "name": "",
                    "type": "address"
                },
                {
                    "indexed": false,
                    "internalType": "string",
                    "name": "",
                    "type": "string"
                }
            ],
            "name": "BlogPost",
            "type": "event"
        },
        {
            "anonymous": false,
            "inputs": [
                {
                    "indexed": false,
                    "internalType": "address",
                    "name": "",
                    "type": "address"
                }
            ],
            "name": "CreatorJoined",
            "type": "event"
        },
        {
            "anonymous": false,
            "inputs": [
                {
                    "indexed": false,
                    "internalType": "address",
                    "name": "",
                    "type": "address"
                },
                {
                    "indexed": false,
                    "internalType": "address",
                    "name": "",
                    "type": "address"
                }
            ],
            "name": "GoldNFT",
            "type": "event"
        },
        {
            "anonymous": false,
            "inputs": [
                {
                    "indexed": false,
                    "internalType": "address",
                    "name": "",
                    "type": "address"
                },
                {
                    "indexed": false,
                    "internalType": "address",
                    "name": "",
                    "type": "address"
                }
            ],
            "name": "PlatinumNFT",
            "type": "event"
        },
        {
            "anonymous": false,
            "inputs": [
                {
                    "indexed": false,
                    "internalType": "address",
                    "name": "",
                    "type": "address"
                },
                {
                    "indexed": false,
                    "internalType": "address",
                    "name": "",
                    "type": "address"
                }
            ],
            "name": "SilverNFT",
            "type": "event"
        },
        {
            "anonymous": false,
            "inputs": [
                {
                    "indexed": false,
                    "internalType": "address",
                    "name": "",
                    "type": "address"
                },
                {
                    "indexed": false,
                    "internalType": "bool",
                    "name": "",
                    "type": "bool"
                }
            ],
            "name": "testingFollows",
            "type": "event"
        },
        {
            "inputs": [
                {
                    "internalType": "string",
                    "name": "",
                    "type": "string"
                }
            ],
            "name": "cidBlog",
            "outputs": [
                {
                    "internalType": "address",
                    "name": "",
                    "type": "address"
                }
            ],
            "stateMutability": "view",
            "type": "function"
        },
        {
            "inputs": [],
            "name": "consumerInfo",
            "outputs": [
                {
                    "internalType": "string",
                    "name": "name",
                    "type": "string"
                },
                {
                    "internalType": "bool",
                    "name": "exists",
                    "type": "bool"
                }
            ],
            "stateMutability": "view",
            "type": "function"
        },
        {
            "inputs": [],
            "name": "creatorInfo",
            "outputs": [
                {
                    "internalType": "string",
                    "name": "name",
                    "type": "string"
                },
                {
                    "internalType": "uint256",
                    "name": "total",
                    "type": "uint256"
                },
                {
                    "internalType": "bool",
                    "name": "exists",
                    "type": "bool"
                }
            ],
            "stateMutability": "view",
            "type": "function"
        },
        {
            "inputs": [
                {
                    "internalType": "address",
                    "name": "_creatorAddress",
                    "type": "address"
                }
            ],
            "name": "followCreator",
            "outputs": [],
            "stateMutability": "nonpayable",
            "type": "function"
        },
        {
            "inputs": [
                {
                    "internalType": "uint256",
                    "name": "_idx",
                    "type": "uint256"
                }
            ],
            "name": "getAllBlogs",
            "outputs": [
                {
                    "internalType": "string",
                    "name": "_cid",
                    "type": "string"
                },
                {
                    "internalType": "uint256",
                    "name": "timestamp",
                    "type": "uint256"
                },
                {
                    "internalType": "uint256",
                    "name": "amtEarned",
                    "type": "uint256"
                }
            ],
            "stateMutability": "view",
            "type": "function"
        },
        {
            "inputs": [
                {
                    "internalType": "uint256",
                    "name": "_idx",
                    "type": "uint256"
                }
            ],
            "name": "getConsumerFollowingDetails",
            "outputs": [
                {
                    "internalType": "uint256",
                    "name": "value",
                    "type": "uint256"
                },
                {
                    "internalType": "uint256",
                    "name": "level",
                    "type": "uint256"
                },
                {
                    "internalType": "bool",
                    "name": "follows",
                    "type": "bool"
                },
                {
                    "internalType": "address",
                    "name": "consumer",
                    "type": "address"
                }
            ],
            "stateMutability": "view",
            "type": "function"
        },
        {
            "inputs": [
                {
                    "internalType": "uint256",
                    "name": "_idx",
                    "type": "uint256"
                }
            ],
            "name": "getCreatorFollowingDetails",
            "outputs": [
                {
                    "internalType": "uint256",
                    "name": "value",
                    "type": "uint256"
                },
                {
                    "internalType": "uint256",
                    "name": "level",
                    "type": "uint256"
                },
                {
                    "internalType": "bool",
                    "name": "follows",
                    "type": "bool"
                },
                {
                    "internalType": "address",
                    "name": "creator",
                    "type": "address"
                }
            ],
            "stateMutability": "view",
            "type": "function"
        },
        {
            "inputs": [
                {
                    "internalType": "address",
                    "name": "_creatorAddress",
                    "type": "address"
                },
                {
                    "internalType": "uint256",
                    "name": "level",
                    "type": "uint256"
                }
            ],
            "name": "joinCommunity",
            "outputs": [],
            "stateMutability": "nonpayable",
            "type": "function"
        },
        {
            "inputs": [
                {
                    "internalType": "string",
                    "name": "_name",
                    "type": "string"
                }
            ],
            "name": "joinConsumer",
            "outputs": [],
            "stateMutability": "nonpayable",
            "type": "function"
        },
        {
            "inputs": [
                {
                    "internalType": "string",
                    "name": "_name",
                    "type": "string"
                }
            ],
            "name": "joinCreator",
            "outputs": [],
            "stateMutability": "nonpayable",
            "type": "function"
        },
        {
            "inputs": [],
            "name": "level1",
            "outputs": [
                {
                    "internalType": "uint256",
                    "name": "",
                    "type": "uint256"
                }
            ],
            "stateMutability": "view",
            "type": "function"
        },
        {
            "inputs": [],
            "name": "level2",
            "outputs": [
                {
                    "internalType": "uint256",
                    "name": "",
                    "type": "uint256"
                }
            ],
            "stateMutability": "view",
            "type": "function"
        },
        {
            "inputs": [],
            "name": "level3",
            "outputs": [
                {
                    "internalType": "uint256",
                    "name": "",
                    "type": "uint256"
                }
            ],
            "stateMutability": "view",
            "type": "function"
        },
        {
            "inputs": [
                {
                    "internalType": "string",
                    "name": "_cid",
                    "type": "string"
                }
            ],
            "name": "likeBlog",
            "outputs": [],
            "stateMutability": "payable",
            "type": "function"
        },
        {
            "inputs": [],
            "name": "owner",
            "outputs": [
                {
                    "internalType": "address",
                    "name": "",
                    "type": "address"
                }
            ],
            "stateMutability": "view",
            "type": "function"
        },
        {
            "inputs": [
                {
                    "internalType": "string",
                    "name": "_cid",
                    "type": "string"
                }
            ],
            "name": "postBlog",
            "outputs": [],
            "stateMutability": "nonpayable",
            "type": "function"
        },
        {
            "inputs": [],
            "name": "totalConsumerFollowing",
            "outputs": [
                {
                    "internalType": "uint256",
                    "name": "",
                    "type": "uint256"
                }
            ],
            "stateMutability": "view",
            "type": "function"
        },
        {
            "inputs": [],
            "name": "totalCreatorFollowing",
            "outputs": [
                {
                    "internalType": "uint256",
                    "name": "",
                    "type": "uint256"
                }
            ],
            "stateMutability": "view",
            "type": "function"
        },
        {
            "inputs": [],
            "name": "totalNoOfBlogs",
            "outputs": [
                {
                    "internalType": "uint256",
                    "name": "",
                    "type": "uint256"
                }
            ],
            "stateMutability": "view",
            "type": "function"
        }
    ],
    "bytecode": "0x60806040523480156200001157600080fd5b5060405162003bf738038062003bf78339818101604052810190620000379190620000d5565b336000806101000a81548173ffffffffffffffffffffffffffffffffffffffff021916908373ffffffffffffffffffffffffffffffffffffffff16021790555082600181905550816002819055508060038190555050505062000131565b600080fd5b6000819050919050565b620000af816200009a565b8114620000bb57600080fd5b50565b600081519050620000cf81620000a4565b92915050565b600080600060608486031215620000f157620000f062000095565b5b60006200010186828701620000be565b93505060206200011486828701620000be565b92505060406200012786828701620000be565b9150509250925092565b613ab680620001416000396000f3fe6080604052600436106101145760003560e01c80639bfd72c0116100a0578063c380d98011610064578063c380d9801461039c578063d62f1082146103c7578063dee8068e146103f0578063ea7ed68614610430578063fcefdf231461045957610114565b80639bfd72c0146102c9578063ad0da798146102f2578063b791117e1461031b578063b8ff5f3d14610346578063bc3377d91461037157610114565b80635cdf445e116100e75780635cdf445e146101b65780635da2ee86146101f55780638d273ba7146102355780638da5cb5b1461026157806394963d891461028c57610114565b806308ab996a146101195780631e891cee1461013557806349bb330f146101625780634d90bc371461018d575b600080fd5b610133600480360381019061012e9190612e90565b610484565b005b34801561014157600080fd5b5061014a6108b7565b60405161015993929190612f8c565b60405180910390f35b34801561016e57600080fd5b50610177610b11565b6040516101849190612fca565b60405180910390f35b34801561019957600080fd5b506101b460048036038101906101af9190613043565b610b17565b005b3480156101c257600080fd5b506101dd60048036038101906101d8919061309c565b610fd8565b6040516101ec939291906130c9565b60405180910390f35b34801561020157600080fd5b5061021c6004803603810190610217919061309c565b611281565b60405161022c9493929190613116565b60405180910390f35b34801561024157600080fd5b5061024a611597565b60405161025892919061315b565b60405180910390f35b34801561026d57600080fd5b506102766117aa565b604051610283919061318b565b60405180910390f35b34801561029857600080fd5b506102b360048036038101906102ae9190612e90565b6117ce565b6040516102c0919061318b565b60405180910390f35b3480156102d557600080fd5b506102f060048036038101906102eb91906131a6565b611817565b005b3480156102fe57600080fd5b5061031960048036038101906103149190612e90565b6120d0565b005b34801561032757600080fd5b50610330612272565b60405161033d9190612fca565b60405180910390f35b34801561035257600080fd5b5061035b6123ab565b6040516103689190612fca565b60405180910390f35b34801561037d57600080fd5b506103866124e4565b6040516103939190612fca565b60405180910390f35b3480156103a857600080fd5b506103b16124ea565b6040516103be9190612fca565b60405180910390f35b3480156103d357600080fd5b506103ee60048036038101906103e99190612e90565b6124f0565b005b3480156103fc57600080fd5b506104176004803603810190610412919061309c565b6126d3565b6040516104279493929190613116565b60405180910390f35b34801561043c57600080fd5b5061045760048036038101906104529190612e90565b6129e9565b005b34801561046557600080fd5b5061046e612bfd565b60405161047b9190612fca565b60405180910390f35b60006006826040516104969190613222565b908152602001604051809103902060009054906101000a900473ffffffffffffffffffffffffffffffffffffffff16905060011515600560003373ffffffffffffffffffffffffffffffffffffffff1673ffffffffffffffffffffffffffffffffffffffff16815260200190815260200160002060010160008373ffffffffffffffffffffffffffffffffffffffff1673ffffffffffffffffffffffffffffffffffffffff16815260200190815260200160002060020160009054906101000a900460ff1615151461059d576040517f08c379a000000000000000000000000000000000000000000000000000000000815260040161059490613285565b60405180910390fd5b60011515600460008373ffffffffffffffffffffffffffffffffffffffff1673ffffffffffffffffffffffffffffffffffffffff16815260200190815260200160002060020160003373ffffffffffffffffffffffffffffffffffffffff1673ffffffffffffffffffffffffffffffffffffffff16815260200190815260200160002060020160009054906101000a900460ff16151514610673576040517f08c379a000000000000000000000000000000000000000000000000000000000815260040161066a90613285565b60405180910390fd5b60006006836040516106859190613222565b908152602001604051809103902060009054906101000a900473ffffffffffffffffffffffffffffffffffffffff1673ffffffffffffffffffffffffffffffffffffffff16346040516106d7906132d6565b60006040518083038185875af1925050503d8060008114610714576040519150601f19603f3d011682016040523d82523d6000602084013e610719565b606091505b505090508061072757600080fd5b34600460008473ffffffffffffffffffffffffffffffffffffffff1673ffffffffffffffffffffffffffffffffffffffff16815260200190815260200160002060020160003373ffffffffffffffffffffffffffffffffffffffff1673ffffffffffffffffffffffffffffffffffffffff16815260200190815260200160002060000160008282546107b9919061331a565b9250508190555034600560003373ffffffffffffffffffffffffffffffffffffffff1673ffffffffffffffffffffffffffffffffffffffff16815260200190815260200160002060010160008473ffffffffffffffffffffffffffffffffffffffff1673ffffffffffffffffffffffffffffffffffffffff1681526020019081526020016000206000016000828254610852919061331a565b9250508190555034600460008473ffffffffffffffffffffffffffffffffffffffff1673ffffffffffffffffffffffffffffffffffffffff16815260200190815260200160002060010160008282546108ab919061331a565b92505081905550505050565b606060008060011515600460003373ffffffffffffffffffffffffffffffffffffffff1673ffffffffffffffffffffffffffffffffffffffff16815260200190815260200160002060060160009054906101000a900460ff1615151480610969575060008054906101000a900473ffffffffffffffffffffffffffffffffffffffff1673ffffffffffffffffffffffffffffffffffffffff163373ffffffffffffffffffffffffffffffffffffffff16145b6109a8576040517f08c379a000000000000000000000000000000000000000000000000000000000815260040161099f9061339a565b60405180910390fd5b600460003373ffffffffffffffffffffffffffffffffffffffff1673ffffffffffffffffffffffffffffffffffffffff16815260200190815260200160002060000180546109f5906133e9565b80601f0160208091040260200160405190810160405280929190818152602001828054610a21906133e9565b8015610a6e5780601f10610a4357610100808354040283529160200191610a6e565b820191906000526020600020905b815481529060010190602001808311610a5157829003601f168201915b50505050509250600460003373ffffffffffffffffffffffffffffffffffffffff1673ffffffffffffffffffffffffffffffffffffffff168152602001908152602001600020600101549150600460003373ffffffffffffffffffffffffffffffffffffffff1673ffffffffffffffffffffffffffffffffffffffff16815260200190815260200160002060060160009054906101000a900460ff169050909192565b60015481565b60011515600560003373ffffffffffffffffffffffffffffffffffffffff1673ffffffffffffffffffffffffffffffffffffffff16815260200190815260200160002060030160009054906101000a900460ff16151514610bad576040517f08c379a0000000000000000000000000000000000000000000000000000000008152600401610ba490613466565b60405180910390fd5b60001515600560003373ffffffffffffffffffffffffffffffffffffffff1673ffffffffffffffffffffffffffffffffffffffff16815260200190815260200160002060010160008373ffffffffffffffffffffffffffffffffffffffff1673ffffffffffffffffffffffffffffffffffffffff16815260200190815260200160002060020160009054906101000a900460ff16151514610c83576040517f08c379a0000000000000000000000000000000000000000000000000000000008152600401610c7a906134d2565b60405180910390fd5b60001515600460008373ffffffffffffffffffffffffffffffffffffffff1673ffffffffffffffffffffffffffffffffffffffff16815260200190815260200160002060020160003373ffffffffffffffffffffffffffffffffffffffff1673ffffffffffffffffffffffffffffffffffffffff16815260200190815260200160002060020160009054906101000a900460ff16151514610d59576040517f08c379a0000000000000000000000000000000000000000000000000000000008152600401610d50906134d2565b60405180910390fd5b6001600560003373ffffffffffffffffffffffffffffffffffffffff1673ffffffffffffffffffffffffffffffffffffffff16815260200190815260200160002060010160008373ffffffffffffffffffffffffffffffffffffffff1673ffffffffffffffffffffffffffffffffffffffff16815260200190815260200160002060020160006101000a81548160ff0219169083151502179055506001600460008373ffffffffffffffffffffffffffffffffffffffff1673ffffffffffffffffffffffffffffffffffffffff16815260200190815260200160002060020160003373ffffffffffffffffffffffffffffffffffffffff1673ffffffffffffffffffffffffffffffffffffffff16815260200190815260200160002060020160006101000a81548160ff021916908315150217905550600560003373ffffffffffffffffffffffffffffffffffffffff1673ffffffffffffffffffffffffffffffffffffffff168152602001908152602001600020600201819080600181540180825580915050600190039060005260206000200160009091909190916101000a81548173ffffffffffffffffffffffffffffffffffffffff021916908373ffffffffffffffffffffffffffffffffffffffff160217905550600460008273ffffffffffffffffffffffffffffffffffffffff1673ffffffffffffffffffffffffffffffffffffffff168152602001908152602001600020600501339080600181540180825580915050600190039060005260206000200160009091909190916101000a81548173ffffffffffffffffffffffffffffffffffffffff021916908373ffffffffffffffffffffffffffffffffffffffff16021790555050565b606060008060011515600460003373ffffffffffffffffffffffffffffffffffffffff1673ffffffffffffffffffffffffffffffffffffffff16815260200190815260200160002060060160009054906101000a900460ff161515148061108a575060008054906101000a900473ffffffffffffffffffffffffffffffffffffffff1673ffffffffffffffffffffffffffffffffffffffff163373ffffffffffffffffffffffffffffffffffffffff16145b6110c9576040517f08c379a00000000000000000000000000000000000000000000000000000000081526004016110c09061353e565b60405180910390fd5b600460003373ffffffffffffffffffffffffffffffffffffffff1673ffffffffffffffffffffffffffffffffffffffff168152602001908152602001600020600401848154811061111d5761111c61355e565b5b906000526020600020018054611132906133e9565b80601f016020809104026020016040519081016040528092919081815260200182805461115e906133e9565b80156111ab5780601f10611180576101008083540402835291602001916111ab565b820191906000526020600020905b81548152906001019060200180831161118e57829003601f168201915b50505050509250600460003373ffffffffffffffffffffffffffffffffffffffff1673ffffffffffffffffffffffffffffffffffffffff168152602001908152602001600020600301836040516112029190613222565b9081526020016040518091039020600001549150600460003373ffffffffffffffffffffffffffffffffffffffff1673ffffffffffffffffffffffffffffffffffffffff168152602001908152602001600020600301836040516112669190613222565b90815260200160405180910390206001015490509193909250565b60008060008060011515600560003373ffffffffffffffffffffffffffffffffffffffff1673ffffffffffffffffffffffffffffffffffffffff16815260200190815260200160002060030160009054906101000a900460ff1615151480611334575060008054906101000a900473ffffffffffffffffffffffffffffffffffffffff1673ffffffffffffffffffffffffffffffffffffffff163373ffffffffffffffffffffffffffffffffffffffff16145b611373576040517f08c379a000000000000000000000000000000000000000000000000000000000815260040161136a9061353e565b60405180910390fd5b600560003373ffffffffffffffffffffffffffffffffffffffff1673ffffffffffffffffffffffffffffffffffffffff16815260200190815260200160002060020185815481106113c7576113c661355e565b5b9060005260206000200160009054906101000a900473ffffffffffffffffffffffffffffffffffffffff169050600560003373ffffffffffffffffffffffffffffffffffffffff1673ffffffffffffffffffffffffffffffffffffffff16815260200190815260200160002060010160008273ffffffffffffffffffffffffffffffffffffffff1673ffffffffffffffffffffffffffffffffffffffff168152602001908152602001600020600001549350600560003373ffffffffffffffffffffffffffffffffffffffff1673ffffffffffffffffffffffffffffffffffffffff16815260200190815260200160002060010160008273ffffffffffffffffffffffffffffffffffffffff1673ffffffffffffffffffffffffffffffffffffffff168152602001908152602001600020600101549250600560003373ffffffffffffffffffffffffffffffffffffffff1673ffffffffffffffffffffffffffffffffffffffff16815260200190815260200160002060010160008273ffffffffffffffffffffffffffffffffffffffff1673ffffffffffffffffffffffffffffffffffffffff16815260200190815260200160002060020160009054906101000a900460ff1691509193509193565b6060600060011515600560003373ffffffffffffffffffffffffffffffffffffffff1673ffffffffffffffffffffffffffffffffffffffff16815260200190815260200160002060030160009054906101000a900460ff1615151480611648575060008054906101000a900473ffffffffffffffffffffffffffffffffffffffff1673ffffffffffffffffffffffffffffffffffffffff163373ffffffffffffffffffffffffffffffffffffffff16145b611687576040517f08c379a000000000000000000000000000000000000000000000000000000000815260040161167e9061353e565b60405180910390fd5b600560003373ffffffffffffffffffffffffffffffffffffffff1673ffffffffffffffffffffffffffffffffffffffff16815260200190815260200160002060000180546116d4906133e9565b80601f0160208091040260200160405190810160405280929190818152602001828054611700906133e9565b801561174d5780601f106117225761010080835404028352916020019161174d565b820191906000526020600020905b81548152906001019060200180831161173057829003601f168201915b50505050509150600560003373ffffffffffffffffffffffffffffffffffffffff1673ffffffffffffffffffffffffffffffffffffffff16815260200190815260200160002060030160009054906101000a900460ff1690509091565b60008054906101000a900473ffffffffffffffffffffffffffffffffffffffff1681565b6006818051602081018201805184825260208301602085012081835280955050505050506000915054906101000a900473ffffffffffffffffffffffffffffffffffffffff1681565b60011515600560003373ffffffffffffffffffffffffffffffffffffffff1673ffffffffffffffffffffffffffffffffffffffff16815260200190815260200160002060010160008473ffffffffffffffffffffffffffffffffffffffff1673ffffffffffffffffffffffffffffffffffffffff16815260200190815260200160002060020160009054906101000a900460ff161515146118ed576040517f08c379a00000000000000000000000000000000000000000000000000000000081526004016118e490613285565b60405180910390fd5b60018103611b0a57600154600560003373ffffffffffffffffffffffffffffffffffffffff1673ffffffffffffffffffffffffffffffffffffffff16815260200190815260200160002060010160008473ffffffffffffffffffffffffffffffffffffffff1673ffffffffffffffffffffffffffffffffffffffff1681526020019081526020016000206000015410156119bc576040517f08c379a00000000000000000000000000000000000000000000000000000000081526004016119b3906135d9565b60405180910390fd5b6001600560003373ffffffffffffffffffffffffffffffffffffffff1673ffffffffffffffffffffffffffffffffffffffff16815260200190815260200160002060010160008473ffffffffffffffffffffffffffffffffffffffff1673ffffffffffffffffffffffffffffffffffffffff168152602001908152602001600020600101819055506001600460008473ffffffffffffffffffffffffffffffffffffffff1673ffffffffffffffffffffffffffffffffffffffff16815260200190815260200160002060020160003373ffffffffffffffffffffffffffffffffffffffff1673ffffffffffffffffffffffffffffffffffffffff168152602001908152602001600020600101819055507fabf911ba0f954c321034f356aed57d7213efc8ebb5e80ce2c9f9aad386fa9b628233604051611afd9291906135f9565b60405180910390a16120cc565b60028103611dec576001600560003373ffffffffffffffffffffffffffffffffffffffff1673ffffffffffffffffffffffffffffffffffffffff16815260200190815260200160002060010160008473ffffffffffffffffffffffffffffffffffffffff1673ffffffffffffffffffffffffffffffffffffffff1681526020019081526020016000206001015414611bd7576040517f08c379a0000000000000000000000000000000000000000000000000000000008152600401611bce906135d9565b60405180910390fd5b600254600560003373ffffffffffffffffffffffffffffffffffffffff1673ffffffffffffffffffffffffffffffffffffffff16815260200190815260200160002060010160008473ffffffffffffffffffffffffffffffffffffffff1673ffffffffffffffffffffffffffffffffffffffff168152602001908152602001600020600001541015611c9e576040517f08c379a0000000000000000000000000000000000000000000000000000000008152600401611c95906135d9565b60405180910390fd5b6002600560003373ffffffffffffffffffffffffffffffffffffffff1673ffffffffffffffffffffffffffffffffffffffff16815260200190815260200160002060010160008473ffffffffffffffffffffffffffffffffffffffff1673ffffffffffffffffffffffffffffffffffffffff168152602001908152602001600020600101819055506002600460008473ffffffffffffffffffffffffffffffffffffffff1673ffffffffffffffffffffffffffffffffffffffff16815260200190815260200160002060020160003373ffffffffffffffffffffffffffffffffffffffff1673ffffffffffffffffffffffffffffffffffffffff168152602001908152602001600020600101819055507fcfc25ae4a8db78a262adeae264bc1160144217199692c171cd91c947acb47fba8233604051611ddf9291906135f9565b60405180910390a16120cb565b600381036120ca576002600560003373ffffffffffffffffffffffffffffffffffffffff1673ffffffffffffffffffffffffffffffffffffffff16815260200190815260200160002060010160008473ffffffffffffffffffffffffffffffffffffffff1673ffffffffffffffffffffffffffffffffffffffff1681526020019081526020016000206001015414611eb9576040517f08c379a0000000000000000000000000000000000000000000000000000000008152600401611eb0906135d9565b60405180910390fd5b600354600560003373ffffffffffffffffffffffffffffffffffffffff1673ffffffffffffffffffffffffffffffffffffffff16815260200190815260200160002060010160008473ffffffffffffffffffffffffffffffffffffffff1673ffffffffffffffffffffffffffffffffffffffff168152602001908152602001600020600001541015611f80576040517f08c379a0000000000000000000000000000000000000000000000000000000008152600401611f77906135d9565b60405180910390fd5b6003600560003373ffffffffffffffffffffffffffffffffffffffff1673ffffffffffffffffffffffffffffffffffffffff16815260200190815260200160002060010160008473ffffffffffffffffffffffffffffffffffffffff1673ffffffffffffffffffffffffffffffffffffffff168152602001908152602001600020600101819055506003600460008473ffffffffffffffffffffffffffffffffffffffff1673ffffffffffffffffffffffffffffffffffffffff16815260200190815260200160002060020160003373ffffffffffffffffffffffffffffffffffffffff1673ffffffffffffffffffffffffffffffffffffffff168152602001908152602001600020600101819055507fa0187b969f4d208b80d3f884311a7d6746c9e22e26627413b1b7c6b17de76f2b82336040516120c19291906135f9565b60405180910390a15b5b5b5050565b60001515600460003373ffffffffffffffffffffffffffffffffffffffff1673ffffffffffffffffffffffffffffffffffffffff16815260200190815260200160002060060160009054906101000a900460ff16151514612166576040517f08c379a000000000000000000000000000000000000000000000000000000000815260040161215d9061366e565b60405180910390fd5b60001515600560003373ffffffffffffffffffffffffffffffffffffffff1673ffffffffffffffffffffffffffffffffffffffff16815260200190815260200160002060030160009054906101000a900460ff161515146121fc576040517f08c379a00000000000000000000000000000000000000000000000000000000081526004016121f3906136da565b60405180910390fd5b6000600560003373ffffffffffffffffffffffffffffffffffffffff1673ffffffffffffffffffffffffffffffffffffffff16815260200190815260200160002090508181600001908161225091906138a6565b5060018160030160006101000a81548160ff0219169083151502179055505050565b600060011515600460003373ffffffffffffffffffffffffffffffffffffffff1673ffffffffffffffffffffffffffffffffffffffff16815260200190815260200160002060060160009054906101000a900460ff1615151480612321575060008054906101000a900473ffffffffffffffffffffffffffffffffffffffff1673ffffffffffffffffffffffffffffffffffffffff163373ffffffffffffffffffffffffffffffffffffffff16145b612360576040517f08c379a00000000000000000000000000000000000000000000000000000000081526004016123579061353e565b60405180910390fd5b600460003373ffffffffffffffffffffffffffffffffffffffff1673ffffffffffffffffffffffffffffffffffffffff16815260200190815260200160002060050180549050905090565b600060011515600460003373ffffffffffffffffffffffffffffffffffffffff1673ffffffffffffffffffffffffffffffffffffffff16815260200190815260200160002060060160009054906101000a900460ff161515148061245a575060008054906101000a900473ffffffffffffffffffffffffffffffffffffffff1673ffffffffffffffffffffffffffffffffffffffff163373ffffffffffffffffffffffffffffffffffffffff16145b612499576040517f08c379a00000000000000000000000000000000000000000000000000000000081526004016124909061339a565b60405180910390fd5b600460003373ffffffffffffffffffffffffffffffffffffffff1673ffffffffffffffffffffffffffffffffffffffff16815260200190815260200160002060040180549050905090565b60025481565b60035481565b60001515600560003373ffffffffffffffffffffffffffffffffffffffff1673ffffffffffffffffffffffffffffffffffffffff16815260200190815260200160002060030160009054906101000a900460ff16151514612586576040517f08c379a000000000000000000000000000000000000000000000000000000000815260040161257d906139c4565b60405180910390fd5b60001515600460003373ffffffffffffffffffffffffffffffffffffffff1673ffffffffffffffffffffffffffffffffffffffff16815260200190815260200160002060060160009054906101000a900460ff1615151461261c576040517f08c379a000000000000000000000000000000000000000000000000000000000815260040161261390613a30565b60405180910390fd5b6000600460003373ffffffffffffffffffffffffffffffffffffffff1673ffffffffffffffffffffffffffffffffffffffff16815260200190815260200160002090508181600001908161267091906138a6565b506000816001018190555060018160060160006101000a81548160ff0219169083151502179055507f59b4a3347cadb9b5161010614eeecf04830a0053f438eba3fcd5df8c00268013336040516126c7919061318b565b60405180910390a15050565b60008060008060011515600460003373ffffffffffffffffffffffffffffffffffffffff1673ffffffffffffffffffffffffffffffffffffffff16815260200190815260200160002060060160009054906101000a900460ff1615151480612786575060008054906101000a900473ffffffffffffffffffffffffffffffffffffffff1673ffffffffffffffffffffffffffffffffffffffff163373ffffffffffffffffffffffffffffffffffffffff16145b6127c5576040517f08c379a00000000000000000000000000000000000000000000000000000000081526004016127bc9061353e565b60405180910390fd5b600460003373ffffffffffffffffffffffffffffffffffffffff1673ffffffffffffffffffffffffffffffffffffffff16815260200190815260200160002060050185815481106128195761281861355e565b5b9060005260206000200160009054906101000a900473ffffffffffffffffffffffffffffffffffffffff169050600460003373ffffffffffffffffffffffffffffffffffffffff1673ffffffffffffffffffffffffffffffffffffffff16815260200190815260200160002060020160008273ffffffffffffffffffffffffffffffffffffffff1673ffffffffffffffffffffffffffffffffffffffff168152602001908152602001600020600001549350600460003373ffffffffffffffffffffffffffffffffffffffff1673ffffffffffffffffffffffffffffffffffffffff16815260200190815260200160002060020160008273ffffffffffffffffffffffffffffffffffffffff1673ffffffffffffffffffffffffffffffffffffffff168152602001908152602001600020600101549250600460003373ffffffffffffffffffffffffffffffffffffffff1673ffffffffffffffffffffffffffffffffffffffff16815260200190815260200160002060020160008273ffffffffffffffffffffffffffffffffffffffff1673ffffffffffffffffffffffffffffffffffffffff16815260200190815260200160002060020160009054906101000a900460ff1691509193509193565b60011515600460003373ffffffffffffffffffffffffffffffffffffffff1673ffffffffffffffffffffffffffffffffffffffff16815260200190815260200160002060060160009054906101000a900460ff16151514612a7f576040517f08c379a0000000000000000000000000000000000000000000000000000000008152600401612a7690613466565b60405180910390fd5b600460003373ffffffffffffffffffffffffffffffffffffffff1673ffffffffffffffffffffffffffffffffffffffff16815260200190815260200160002060040181908060018154018082558091505060019003906000526020600020016000909190919091509081612af391906138a6565b5042600460003373ffffffffffffffffffffffffffffffffffffffff1673ffffffffffffffffffffffffffffffffffffffff16815260200190815260200160002060030182604051612b459190613222565b9081526020016040518091039020600001819055506000600460003373ffffffffffffffffffffffffffffffffffffffff1673ffffffffffffffffffffffffffffffffffffffff16815260200190815260200160002060030182604051612bac9190613222565b9081526020016040518091039020600101819055507f929c493fb8fec3a544d4297161be016710cb5cc954a1333172a6e843bb5b8d053382604051612bf2929190613a50565b60405180910390a150565b600060011515600560003373ffffffffffffffffffffffffffffffffffffffff1673ffffffffffffffffffffffffffffffffffffffff16815260200190815260200160002060030160009054906101000a900460ff1615151480612cac575060008054906101000a900473ffffffffffffffffffffffffffffffffffffffff1673ffffffffffffffffffffffffffffffffffffffff163373ffffffffffffffffffffffffffffffffffffffff16145b612ceb576040517f08c379a0000000000000000000000000000000000000000000000000000000008152600401612ce29061353e565b60405180910390fd5b600560003373ffffffffffffffffffffffffffffffffffffffff1673ffffffffffffffffffffffffffffffffffffffff16815260200190815260200160002060020180549050905090565b6000604051905090565b600080fd5b600080fd5b600080fd5b600080fd5b6000601f19601f8301169050919050565b7f4e487b7100000000000000000000000000000000000000000000000000000000600052604160045260246000fd5b612d9d82612d54565b810181811067ffffffffffffffff82111715612dbc57612dbb612d65565b5b80604052505050565b6000612dcf612d36565b9050612ddb8282612d94565b919050565b600067ffffffffffffffff821115612dfb57612dfa612d65565b5b612e0482612d54565b9050602081019050919050565b82818337600083830152505050565b6000612e33612e2e84612de0565b612dc5565b905082815260208101848484011115612e4f57612e4e612d4f565b5b612e5a848285612e11565b509392505050565b600082601f830112612e7757612e76612d4a565b5b8135612e87848260208601612e20565b91505092915050565b600060208284031215612ea657612ea5612d40565b5b600082013567ffffffffffffffff811115612ec457612ec3612d45565b5b612ed084828501612e62565b91505092915050565b600081519050919050565b600082825260208201905092915050565b60005b83811015612f13578082015181840152602081019050612ef8565b60008484015250505050565b6000612f2a82612ed9565b612f348185612ee4565b9350612f44818560208601612ef5565b612f4d81612d54565b840191505092915050565b6000819050919050565b612f6b81612f58565b82525050565b60008115159050919050565b612f8681612f71565b82525050565b60006060820190508181036000830152612fa68186612f1f565b9050612fb56020830185612f62565b612fc26040830184612f7d565b949350505050565b6000602082019050612fdf6000830184612f62565b92915050565b600073ffffffffffffffffffffffffffffffffffffffff82169050919050565b600061301082612fe5565b9050919050565b61302081613005565b811461302b57600080fd5b50565b60008135905061303d81613017565b92915050565b60006020828403121561305957613058612d40565b5b60006130678482850161302e565b91505092915050565b61307981612f58565b811461308457600080fd5b50565b60008135905061309681613070565b92915050565b6000602082840312156130b2576130b1612d40565b5b60006130c084828501613087565b91505092915050565b600060608201905081810360008301526130e38186612f1f565b90506130f26020830185612f62565b6130ff6040830184612f62565b949350505050565b61311081613005565b82525050565b600060808201905061312b6000830187612f62565b6131386020830186612f62565b6131456040830185612f7d565b6131526060830184613107565b95945050505050565b600060408201905081810360008301526131758185612f1f565b90506131846020830184612f7d565b9392505050565b60006020820190506131a06000830184613107565b92915050565b600080604083850312156131bd576131bc612d40565b5b60006131cb8582860161302e565b92505060206131dc85828601613087565b9150509250929050565b600081905092915050565b60006131fc82612ed9565b61320681856131e6565b9350613216818560208601612ef5565b80840191505092915050565b600061322e82846131f1565b915081905092915050565b7f466f6c6c6f77207468652063726561746f722066697273740000000000000000600082015250565b600061326f601883612ee4565b915061327a82613239565b602082019050919050565b6000602082019050818103600083015261329e81613262565b9050919050565b600081905092915050565b50565b60006132c06000836132a5565b91506132cb826132b0565b600082019050919050565b60006132e1826132b3565b9150819050919050565b7f4e487b7100000000000000000000000000000000000000000000000000000000600052601160045260246000fd5b600061332582612f58565b915061333083612f58565b9250828201905080821115613348576133476132eb565b5b92915050565b7f43726561746f7220646f65736e27742065786973740000000000000000000000600082015250565b6000613384601583612ee4565b915061338f8261334e565b602082019050919050565b600060208201905081810360008301526133b381613377565b9050919050565b7f4e487b7100000000000000000000000000000000000000000000000000000000600052602260045260246000fd5b6000600282049050600182168061340157607f821691505b602082108103613414576134136133ba565b5b50919050565b7f55736572206e6f74207265676973746572656400000000000000000000000000600082015250565b6000613450601383612ee4565b915061345b8261341a565b602082019050919050565b6000602082019050818103600083015261347f81613443565b9050919050565b7f5573657220616c726561647920666f6c6c6f7773000000000000000000000000600082015250565b60006134bc601483612ee4565b91506134c782613486565b602082019050919050565b600060208201905081810360008301526134eb816134af565b9050919050565b7f4e6f742061636365737369626c65000000000000000000000000000000000000600082015250565b6000613528600e83612ee4565b9150613533826134f2565b602082019050919050565b600060208201905081810360008301526135578161351b565b9050919050565b7f4e487b7100000000000000000000000000000000000000000000000000000000600052603260045260246000fd5b7f4e6f7420656c696769626c650000000000000000000000000000000000000000600082015250565b60006135c3600c83612ee4565b91506135ce8261358d565b602082019050919050565b600060208201905081810360008301526135f2816135b6565b9050919050565b600060408201905061360e6000830185613107565b61361b6020830184613107565b9392505050565b7f43726561746f722063616e6e6f7420626520636f6e73756d6572000000000000600082015250565b6000613658601a83612ee4565b915061366382613622565b602082019050919050565b600060208201905081810360008301526136878161364b565b9050919050565b7f436f6e73756d657220616c726561647920657869737473000000000000000000600082015250565b60006136c4601783612ee4565b91506136cf8261368e565b602082019050919050565b600060208201905081810360008301526136f3816136b7565b9050919050565b60008190508160005260206000209050919050565b60006020601f8301049050919050565b600082821b905092915050565b60006008830261375c7fffffffffffffffffffffffffffffffffffffffffffffffffffffffffffffffff8261371f565b613766868361371f565b95508019841693508086168417925050509392505050565b6000819050919050565b60006137a361379e61379984612f58565b61377e565b612f58565b9050919050565b6000819050919050565b6137bd83613788565b6137d16137c9826137aa565b84845461372c565b825550505050565b600090565b6137e66137d9565b6137f18184846137b4565b505050565b5b818110156138155761380a6000826137de565b6001810190506137f7565b5050565b601f82111561385a5761382b816136fa565b6138348461370f565b81016020851015613843578190505b61385761384f8561370f565b8301826137f6565b50505b505050565b600082821c905092915050565b600061387d6000198460080261385f565b1980831691505092915050565b6000613896838361386c565b9150826002028217905092915050565b6138af82612ed9565b67ffffffffffffffff8111156138c8576138c7612d65565b5b6138d282546133e9565b6138dd828285613819565b600060209050601f83116001811461391057600084156138fe578287015190505b613908858261388a565b865550613970565b601f19841661391e866136fa565b60005b8281101561394657848901518255600182019150602085019450602081019050613921565b86831015613963578489015161395f601f89168261386c565b8355505b6001600288020188555050505b505050505050565b7f436f6e73756d65722063616e6e6f742062652043726561746f72000000000000600082015250565b60006139ae601a83612ee4565b91506139b982613978565b602082019050919050565b600060208201905081810360008301526139dd816139a1565b9050919050565b7f43726561746f7220616c72656164792065786973747300000000000000000000600082015250565b6000613a1a601683612ee4565b9150613a25826139e4565b602082019050919050565b60006020820190508181036000830152613a4981613a0d565b9050919050565b6000604082019050613a656000830185613107565b8181036020830152613a778184612f1f565b9050939250505056fea2646970667358221220038531cf778cd2ba9b783e2a5e7e7c2bdc4f32c464ac60494c1fe5200cb277c364736f6c63430008110033",
    "linkReferences": {},
    "deployedLinkReferences": {}
}